:100000000C9434000C943E000C943E000C943E0082
:100010000C943E000C943E000C943E000C943E0068
:100020000C943E000C943E000C943E000C943E0058
:100030000C943E000C943E000C943E000C943E0048
:100040000C943E000C943E000C943E000C943E0038
:100050000C943E000C943E000C943E000C943E0028
:100060000C943E000C943E0011241FBECFEFD8E04C
:10007000DEBFCDBF0E9477000C94D1000C9400002D
:100080009093C5008093C40088E18093C1008EE006
:100090008093C20008959091C00095FFFCCF80939B
:1000A000C60008958091C00087FFFCCF8091C600F4
:1000B000089589B18695869591E08927817090E0B1
:1000C0000895CF93DF932091C00025FFFCCFEC0172
:1000D0008991882319F00E944B00FACF8AE0DF91C2
:1000E000CF910C944B004AE050E00C949100CF93D8
:1000F000DF93CDB7DEB760970FB6F894DEBF0FBEC3
:10010000CDBF87E690E00E944000BE016F5F7F4F49
:1001100082E896E00E947300CE0101960E94610081
:10012000FBCF4532510520F4423010F00C949C0076
:10013000FB011082CB010895BB274A3031F499238B
:1001400022F4BDE2909581959F4F0C94A800BB27A7
:10015000FB015527AA27880F991FAA1FA41710F083
:10016000A41B83955051B9F7A05DAA3308F0A95D8F
:10017000A193009779F7B111B1931192CB010C942F
:10018000C100DC01FC01672F71917723E1F7329701
:1001900004C07C916D9370836291AE17BF07C8F362
:0601A0000895F894FFCF62
:00000001FF
