:100000000C9434000C943E000C943E000C943E0082
:100010000C943E000C943E000C943E000C943E0068
:100020000C943E000C943E000C943E000C94B200E4
:100030000C943E000C943E000C943E000C943E0048
:100040000C943E000C943E000C943E000C943E0038
:100050000C943E000C943E000C943E000C943E0028
:100060000C943E000C943E0011241FBECFEFD8E04C
:10007000DEBFCDBF0E94BC000C940B010C940000AD
:100080009093C5008093C40088E18093C1008EE006
:100090008093C20008959091C00095FFFCCF80939B
:1000A000C60008958091C00087FFFCCF8091C600F4
:1000B0000895CF93DF932091C00025FFFCCFEC0182
:1000C0008991882319F00E944B00FACF8AE0DF91D2
:1000D000CF910C944B00CF93DF93CDB7DEB76097F1
:1000E0000FB6F894DEBF0FBECDBF4AE050E0BE01B0
:1000F0006F5F7F4F0E94CB00CE0101960E94590096
:1001000060960FB6F894DEBF0FBECDBFDF91CF91E2
:10011000089588E09DE39093890080938800E1E84A
:10012000F0E0808188608083AFE6B0E08C918260EF
:100130008C9380818560808378940895EAE7F0E06D
:10014000808187608083ACE7B0E08C9180648C9381
:1001500080818068808380818064808380818062E8
:10016000808308951F920F920FB60F9211240F9063
:100170000FBE0F901F90189587E690E00E944000F8
:100180000E9489000E949E008091780090917900E1
:100190000E946B00F9CF4532510520F4423010F037
:1001A0000C94D600FB011082CB010895BB274A3086
:1001B00031F4992322F4BDE2909581959F4F0C94E0
:1001C000E200BB27FB015527AA27880F991FAA1F0A
:1001D000A41710F0A41B83955051B9F7A05DAA3362
:1001E00008F0A95DA193009779F7B111B19311922D
:1001F000CB010C94FB00DC01FC01672F719177238C
:10020000E1F7329704C07C916D9370836291AE17D1
:0A021000BF07C8F30895F894FFCF6C
:00000001FF
