:100000000C9434000C943E000C943E000C943E0082
:100010000C943E000C943E000C943E000C943E0068
:100020000C943E000C943E000C943E000C943E0058
:100030000C943E000C943E000C943E000C943E0048
:100040000C943E000C943E000C943E000C943E0038
:100050000C943E000C943E000C943E000C943E0028
:100060000C943E000C943E0011241FBECFEFD8E04C
:10007000DEBFCDBF0E9487000C94D5000C94000019
:100080009093C5008093C40088E18093C1008EE006
:100090008093C20008959091C00095FFFCCF80939B
:1000A000C60008958091C00087FFFCCF8091C600F4
:1000B0000895CF93DF932091C00025FFFCCFEC0182
:1000C0008991882319F00E944B00FACFDF91CF91DC
:1000D0000895CF93DF93CDB7DEB760970FB6F8944E
:1000E000DEBF0FBECDBF4AE050E0BE016F5F7F4F65
:1000F0000E949500CE0101960E94590060960FB6AD
:10010000F894DEBF0FBECDBFDF91CF91089587E693
:1001100090E00E94400080E90E944B0080E50E9430
:100120004B008FE30E944B00F6CF4532510520F47F
:10013000423010F00C94A000FB011082CB01089516
:10014000BB274A3031F4992322F4BDE29095819582
:100150009F4F0C94AC00BB27FB015527AA27880FA3
:10016000991FAA1FA41710F0A41B83955051B9F72B
:10017000A05DAA3308F0A95DA193009779F7B111AA
:10018000B1931192CB010C94C500DC01FC01672FE7
:1001900071917723E1F7329704C07C916D9370835E
:0E01A0006291AE17BF07C8F30895F894FFCF21
:00000001FF
