:100000000C9434000C943E000C943E000C943E0082
:100010000C943E000C943E000C943E000C943E0068
:100020000C943E000C943E000C943E000C9477001F
:100030000C943E000C943E000C943E000C943E0048
:100040000C943E000C943E000C943E000C943E0038
:100050000C943E000C943E000C943E000C943E0028
:100060000C943E000C943E0011241FBECFEFD8E04C
:10007000DEBFCDBF0E949B000C94B3000C94000027
:10008000CF93DF9300D000D0CDB7DEB719821A82AC
:100090001B821C82092E000CAA0BBB0B49815A81C2
:1000A0006B817C81481759076A077B0798F4EFEC4E
:1000B000F7E03197F1F700C0000049815A816B8168
:1000C0007C814F5F5F4F6F4F7F4F49835A836B83B4
:1000D0007C83E4CF0F900F900F900F90DF91CF9122
:1000E00008951D9B02C02D9808952D9A08951F9282
:1000F0000F920FB60F9211242F933F934F935F935C
:100100006F937F938F939F93AF93BF93EF93FF93DF
:100110000E947100FF91EF91BF91AF919F918F91DC
:100120007F916F915F914F913F912F910F900FBEF3
:100130000F901F901895259A83E89EE1909389006F
:1001400080938800809181008860809381008091F5
:100150006F00826080936F00809181008560809342
:0A01600081007894FFCFF894FFCFE0
:00000001FF
