:100000000C9434000C943E000C943E000C943E0082
:100010000C943E000C943E000C943E000C943E0068
:100020000C943E000C943E000C943E000C94400056
:100030000C943E000C943E000C943E000C943E0048
:100040000C943E000C943E000C943E000C943E0038
:100050000C943E000C943E000C943E000C943E0028
:100060000C943E000C943E0011241FBECFEFD8E04C
:10007000DEBFCDBF0E945A000C9482000C94000099
:100080001F920F920FB60F9211248F939F93EF93AD
:10009000FF93E8E8F0E0808191818C599F4F918334
:1000A0008083FF91EF919F918F910F900FBE0F90E2
:1000B0001F901895219A8FEF9FEF90938700809360
:1000C000860080918000806A80938000809180000B
:1000D00082608093800083E887BD80918100886082
:1000E0008093810080916F00826080936F00809187
:1000F000810085608093810078941092890010922D
:080100008800FFCFF894FFCF47
:00000001FF
