:100000000C9434000C943E000C943E000C943E0082
:100010000C943E000C943E000C943E000C943E0068
:100020000C943E000C943E000C943E000C943E0058
:100030000C943E000C943E000C943E000C943E0048
:100040000C943E000C943E000C943E000C943E0038
:100050000C943E000C943E000C943E000C943E0028
:100060000C943E000C943E0011241FBECFEFD8E04C
:10007000DEBFCDBF0E9448000C9454000C940000D9
:1000800089B18695869591E08927817090E00895E1
:100090008AB18AB95A9A259A0E944000892B11F098
:0C00A0002D9AFACF2D98F8CFF894FFCFDE
:00000001FF
