:100000000C9434000C9448000C943E000C943E0078
:100010000C943E000C943E000C943E000C943E0068
:100020000C943E000C943E000C943E000C943E0058
:100030000C943E000C943E000C943E000C943E0048
:100040000C943E000C943E000C943E000C943E0038
:100050000C943E000C943E000C943E000C943E0028
:100060000C943E000C943E0011241FBECFEFD8E04C
:10007000DEBFCDBF0E9471000C947F000C94000085
:1000800089B18695869591E08927817090E00895E1
:100090001F920F920FB60F9211242F933F934F93FD
:1000A0005F936F937F938F939F93AF93BF93EF93E0
:1000B000FF930E944000892B11F02D9A01C02D98CA
:1000C000FF91EF91BF91AF919F918F917F916F9130
:1000D0005F914F913F912F910F900FBE0F901F9006
:1000E000189552985A9A80916900816080936900AE
:1000F000E89A78948AB18AB95A9A259AFFCFF894E7
:02010000FFCF2F
:00000001FF
