:100000000C9434000C9446000C9446000C9446006A
:100010000C9446000C9446000C9446000C94460048
:100020000C9446000C9446000C9446000C94C900B5
:100030000C9446000C9446000C9446000C94460028
:100040000C9446000C9446000C9446000C94460018
:100050000C9446000C9446000C9446000C94460008
:100060000C9446000C94460011241FBECFEFD8E03C
:10007000DEBFCDBF21E0A0E0B1E001C01D92A630FF
:10008000B207E1F70E9406010C944F010C940000A6
:100090008BED95E09093890080938800E1E8F0E093
:1000A000808188608083AFE6B0E08C9182608C9321
:1000B000808185608083789408959093C5008093B3
:1000C000C40088E18093C1008EE08093C20008954F
:1000D0009091C00095FFFCCF8093C6000895809159
:1000E000C00087FFFCCF8091C6000895CF93DF93B7
:1000F0002091C00025FFFCCFEC018991882319F0E5
:100100000E946800FACF8AE0DF91CF910C946800DA
:10011000CF93DF93CDB7DEB760970FB6F894DEBF0D
:100120000FBECDBF4AE050E0BE016F5F7F4F0E941F
:100130000F01CE0101960E94760060960FB6F894EA
:10014000DEBF0FBECDBFDF91CF910895EAE7F0E0AB
:10015000808187608083ACE7B0E08C9180648C9371
:10016000808180688083089590917C00987F87705B
:10017000892B80937C0080917A00806480937A0040
:1001800080917A0086FDFCCF809178009091790073
:1001900008951F920F920FB60F9211242F933F9341
:1001A0004F935F936F937F938F939F93AF93BF937F
:1001B000EF93FF9380E00E94B40090930501809339
:1001C000040181E00E94B400909303018093020136
:1001D00082E00E94B400909301018093000180911D
:1001E0000201909103010E948800FF91EF91BF915D
:1001F000AF919F918F917F916F915F914F913F91BF
:100200002F910F900FBE0F901F90189587E690E0EA
:100210000E945D000E9448000E94A600FFCF453268
:10022000510520F4423010F00C941A01FB011082A9
:10023000CB010895BB274A3031F4992322F4BDE263
:10024000909581959F4F0C942601BB27FB01552764
:10025000AA27880F991FAA1FA41710F0A41B839523
:100260005051B9F7A05DAA3308F0A95DA19300979A
:1002700079F7B111B1931192CB010C943F01DC01DC
:10028000FC01672F71917723E1F7329704C07C91CD
:100290006D9370836291AE17BF07C8F30895F89409
:0202A000FFCF8E
:00000001FF
